{
  "_format": "hh-sol-artifact-1",
  "contractName": "Bank",
  "sourceName": "contracts/Bank.sol",
  "abi": [
    {
      "inputs": [],
      "stateMutability": "nonpayable",
      "type": "constructor"
    },
    {
      "inputs": [
        {
          "internalType": "address",
          "name": "",
          "type": "address"
        }
      ],
      "name": "balances",
      "outputs": [
        {
          "internalType": "uint256",
          "name": "",
          "type": "uint256"
        }
      ],
      "stateMutability": "view",
      "type": "function"
    },
    {
      "inputs": [],
      "name": "bankName",
      "outputs": [
        {
          "internalType": "string",
          "name": "",
          "type": "string"
        }
      ],
      "stateMutability": "view",
      "type": "function"
    },
    {
      "inputs": [],
      "name": "depositMoney",
      "outputs": [],
      "stateMutability": "payable",
      "type": "function"
    },
    {
      "inputs": [],
      "name": "getBalance",
      "outputs": [
        {
          "internalType": "uint256",
          "name": "",
          "type": "uint256"
        }
      ],
      "stateMutability": "view",
      "type": "function"
    },
    {
      "inputs": [],
      "name": "getBankBalance",
      "outputs": [
        {
          "internalType": "uint256",
          "name": "",
          "type": "uint256"
        }
      ],
      "stateMutability": "view",
      "type": "function"
    },
    {
      "inputs": [],
      "name": "owner",
      "outputs": [
        {
          "internalType": "address",
          "name": "",
          "type": "address"
        }
      ],
      "stateMutability": "view",
      "type": "function"
    },
    {
      "inputs": [
        {
          "internalType": "string",
          "name": "_bankName",
          "type": "string"
        }
      ],
      "name": "setBankName",
      "outputs": [],
      "stateMutability": "nonpayable",
      "type": "function"
    },
    {
      "inputs": [
        {
          "internalType": "address payable",
          "name": "_to",
          "type": "address"
        },
        {
          "internalType": "uint256",
          "name": "_amount",
          "type": "uint256"
        }
      ],
      "name": "withdrawMoney",
      "outputs": [],
      "stateMutability": "payable",
      "type": "function"
    }
  ],
  "bytecode": "0x608060405234801561001057600080fd5b50336000806101000a81548173ffffffffffffffffffffffffffffffffffffffff021916908373ffffffffffffffffffffffffffffffffffffffff160217905550610dae806100606000396000f3fe60806040526004361061007b5760003560e01c8063701426901161004e578063701426901461011d5780637b83b50b146101465780638da5cb5b14610171578063f274c8971461019c5761007b565b806312065fe01461008057806316c05aa2146100ab57806327d35801146100b557806327e235e3146100e0575b600080fd5b34801561008c57600080fd5b506100956101b8565b6040516100a2919061072d565b60405180910390f35b6100b36101ff565b005b3480156100c157600080fd5b506100ca6102da565b6040516100d791906107e1565b60405180910390f35b3480156100ec57600080fd5b5061010760048036038101906101029190610875565b610368565b604051610114919061072d565b60405180910390f35b34801561012957600080fd5b50610144600480360381019061013f91906109d7565b610380565b005b34801561015257600080fd5b5061015b610428565b604051610168919061072d565b60405180910390f35b34801561017d57600080fd5b506101866104bf565b6040516101939190610a2f565b60405180910390f35b6101b660048036038101906101b19190610ab4565b6104e3565b005b6000600260003373ffffffffffffffffffffffffffffffffffffffff1673ffffffffffffffffffffffffffffffffffffffff16815260200190815260200160002054905090565b6000341415610243576040517f08c379a000000000000000000000000000000000000000000000000000000000815260040161023a90610b66565b60405180910390fd5b61029534600260003373ffffffffffffffffffffffffffffffffffffffff1673ffffffffffffffffffffffffffffffffffffffff1681526020019081526020016000205461064590919063ffffffff16565b600260003373ffffffffffffffffffffffffffffffffffffffff1673ffffffffffffffffffffffffffffffffffffffff16815260200190815260200160002081905550565b600180546102e790610bb5565b80601f016020809104026020016040519081016040528092919081815260200182805461031390610bb5565b80156103605780601f1061033557610100808354040283529160200191610360565b820191906000526020600020905b81548152906001019060200180831161034357829003601f168201915b505050505081565b60026020528060005260406000206000915090505481565b60008054906101000a900473ffffffffffffffffffffffffffffffffffffffff1673ffffffffffffffffffffffffffffffffffffffff163373ffffffffffffffffffffffffffffffffffffffff161461040e576040517f08c379a000000000000000000000000000000000000000000000000000000000815260040161040590610c33565b60405180910390fd5b8060019080519060200190610424929190610671565b5050565b60008060009054906101000a900473ffffffffffffffffffffffffffffffffffffffff1673ffffffffffffffffffffffffffffffffffffffff163373ffffffffffffffffffffffffffffffffffffffff16146104b9576040517f08c379a00000000000000000000000000000000000000000000000000000000081526004016104b090610c33565b60405180910390fd5b47905090565b60008054906101000a900473ffffffffffffffffffffffffffffffffffffffff1681565b80600260003373ffffffffffffffffffffffffffffffffffffffff1673ffffffffffffffffffffffffffffffffffffffff168152602001908152602001600020541015610565576040517f08c379a000000000000000000000000000000000000000000000000000000000815260040161055c90610c9f565b60405180910390fd5b6105b781600260003373ffffffffffffffffffffffffffffffffffffffff1673ffffffffffffffffffffffffffffffffffffffff1681526020019081526020016000205461065b90919063ffffffff16565b600260003373ffffffffffffffffffffffffffffffffffffffff1673ffffffffffffffffffffffffffffffffffffffff168152602001908152602001600020819055508173ffffffffffffffffffffffffffffffffffffffff166108fc829081150290604051600060405180830381858888f19350505050158015610640573d6000803e3d6000fd5b505050565b600081836106539190610cee565b905092915050565b600081836106699190610d44565b905092915050565b82805461067d90610bb5565b90600052602060002090601f01602090048101928261069f57600085556106e6565b82601f106106b857805160ff19168380011785556106e6565b828001600101855582156106e6579182015b828111156106e55782518255916020019190600101906106ca565b5b5090506106f391906106f7565b5090565b5b808211156107105760008160009055506001016106f8565b5090565b6000819050919050565b61072781610714565b82525050565b6000602082019050610742600083018461071e565b92915050565b600081519050919050565b600082825260208201905092915050565b60005b83811015610782578082015181840152602081019050610767565b83811115610791576000848401525b50505050565b6000601f19601f8301169050919050565b60006107b382610748565b6107bd8185610753565b93506107cd818560208601610764565b6107d681610797565b840191505092915050565b600060208201905081810360008301526107fb81846107a8565b905092915050565b6000604051905090565b600080fd5b600080fd5b600073ffffffffffffffffffffffffffffffffffffffff82169050919050565b600061084282610817565b9050919050565b61085281610837565b811461085d57600080fd5b50565b60008135905061086f81610849565b92915050565b60006020828403121561088b5761088a61080d565b5b600061089984828501610860565b91505092915050565b600080fd5b600080fd5b7f4e487b7100000000000000000000000000000000000000000000000000000000600052604160045260246000fd5b6108e482610797565b810181811067ffffffffffffffff82111715610903576109026108ac565b5b80604052505050565b6000610916610803565b905061092282826108db565b919050565b600067ffffffffffffffff821115610942576109416108ac565b5b61094b82610797565b9050602081019050919050565b82818337600083830152505050565b600061097a61097584610927565b61090c565b905082815260208101848484011115610996576109956108a7565b5b6109a1848285610958565b509392505050565b600082601f8301126109be576109bd6108a2565b5b81356109ce848260208601610967565b91505092915050565b6000602082840312156109ed576109ec61080d565b5b600082013567ffffffffffffffff811115610a0b57610a0a610812565b5b610a17848285016109a9565b91505092915050565b610a2981610837565b82525050565b6000602082019050610a446000830184610a20565b92915050565b6000610a5582610817565b9050919050565b610a6581610a4a565b8114610a7057600080fd5b50565b600081359050610a8281610a5c565b92915050565b610a9181610714565b8114610a9c57600080fd5b50565b600081359050610aae81610a88565b92915050565b60008060408385031215610acb57610aca61080d565b5b6000610ad985828601610a73565b9250506020610aea85828601610a9f565b9150509250929050565b7f596f75206e65656420746f206465706f73697420736f6d6520616d6f756e742060008201527f6f66206d6f6e6579210000000000000000000000000000000000000000000000602082015250565b6000610b50602983610753565b9150610b5b82610af4565b604082019050919050565b60006020820190508181036000830152610b7f81610b43565b9050919050565b7f4e487b7100000000000000000000000000000000000000000000000000000000600052602260045260246000fd5b60006002820490506001821680610bcd57607f821691505b60208210811415610be157610be0610b86565b5b50919050565b7f596f75206861766520746f20626520746865206f776e65720000000000000000600082015250565b6000610c1d601883610753565b9150610c2882610be7565b602082019050919050565b60006020820190508181036000830152610c4c81610c10565b9050919050565b7f4e6f2073756666696369656e742066756e647300000000000000000000000000600082015250565b6000610c89601383610753565b9150610c9482610c53565b602082019050919050565b60006020820190508181036000830152610cb881610c7c565b9050919050565b7f4e487b7100000000000000000000000000000000000000000000000000000000600052601160045260246000fd5b6000610cf982610714565b9150610d0483610714565b9250827fffffffffffffffffffffffffffffffffffffffffffffffffffffffffffffffff03821115610d3957610d38610cbf565b5b828201905092915050565b6000610d4f82610714565b9150610d5a83610714565b925082821015610d6d57610d6c610cbf565b5b82820390509291505056fea264697066735822122019b9eaa442b11d49862f005f55408ad83e9414e8d819d2157eff3d2178a5886f64736f6c63430008090033",
  "linkReferences": {},
  "deployedLinkReferences": {}
}